{
  "_format": "hh-sol-artifact-1",
  "contractName": "Staking",
  "sourceName": "contracts/Staking.sol",
  "abi": [
    {
      "inputs": [],
      "stateMutability": "payable",
      "type": "constructor"
    },
    {
      "inputs": [
        {
          "internalType": "uint256",
          "name": "positionId",
          "type": "uint256"
        },
        {
          "internalType": "uint256",
          "name": "newUnlockDate",
          "type": "uint256"
        }
      ],
      "name": "changeUnlockDateForPosition",
      "outputs": [],
      "stateMutability": "nonpayable",
      "type": "function"
    },
    {
      "inputs": [
        {
          "internalType": "uint256",
          "name": "positionId",
          "type": "uint256"
        }
      ],
      "name": "closePosition",
      "outputs": [],
      "stateMutability": "nonpayable",
      "type": "function"
    },
    {
      "inputs": [],
      "name": "currentPositionId",
      "outputs": [
        {
          "internalType": "uint256",
          "name": "",
          "type": "uint256"
        }
      ],
      "stateMutability": "view",
      "type": "function"
    },
    {
      "inputs": [
        {
          "internalType": "uint256",
          "name": "numDays",
          "type": "uint256"
        }
      ],
      "name": "getInterestRate",
      "outputs": [
        {
          "internalType": "uint256",
          "name": "",
          "type": "uint256"
        }
      ],
      "stateMutability": "view",
      "type": "function"
    },
    {
      "inputs": [],
      "name": "getLockPeriods",
      "outputs": [
        {
          "internalType": "uint256[]",
          "name": "",
          "type": "uint256[]"
        }
      ],
      "stateMutability": "view",
      "type": "function"
    },
    {
      "inputs": [
        {
          "internalType": "uint256",
          "name": "positionId",
          "type": "uint256"
        }
      ],
      "name": "getPositionById",
      "outputs": [
        {
          "components": [
            {
              "internalType": "uint256",
              "name": "positionId",
              "type": "uint256"
            },
            {
              "internalType": "address",
              "name": "walletAddress",
              "type": "address"
            },
            {
              "internalType": "uint256",
              "name": "createdDate",
              "type": "uint256"
            },
            {
              "internalType": "uint256",
              "name": "unlockDate",
              "type": "uint256"
            },
            {
              "internalType": "uint256",
              "name": "percentInterest",
              "type": "uint256"
            },
            {
              "internalType": "uint256",
              "name": "weiStaked",
              "type": "uint256"
            },
            {
              "internalType": "uint256",
              "name": "weiInterest",
              "type": "uint256"
            },
            {
              "internalType": "bool",
              "name": "open",
              "type": "bool"
            }
          ],
          "internalType": "struct Staking.Position",
          "name": "",
          "type": "tuple"
        }
      ],
      "stateMutability": "view",
      "type": "function"
    },
    {
      "inputs": [
        {
          "internalType": "address",
          "name": "walletAddress",
          "type": "address"
        }
      ],
      "name": "getPositionIdsForAddres",
      "outputs": [
        {
          "internalType": "uint256[]",
          "name": "",
          "type": "uint256[]"
        }
      ],
      "stateMutability": "view",
      "type": "function"
    },
    {
      "inputs": [
        {
          "internalType": "uint256",
          "name": "",
          "type": "uint256"
        }
      ],
      "name": "lockPeriods",
      "outputs": [
        {
          "internalType": "uint256",
          "name": "",
          "type": "uint256"
        }
      ],
      "stateMutability": "view",
      "type": "function"
    },
    {
      "inputs": [
        {
          "internalType": "uint256",
          "name": "numDays",
          "type": "uint256"
        },
        {
          "internalType": "uint256",
          "name": "basisPoints",
          "type": "uint256"
        }
      ],
      "name": "modifyLockPeriods",
      "outputs": [],
      "stateMutability": "nonpayable",
      "type": "function"
    },
    {
      "inputs": [
        {
          "internalType": "uint256",
          "name": "",
          "type": "uint256"
        }
      ],
      "name": "numberOfDaysWithInterest",
      "outputs": [
        {
          "internalType": "uint256",
          "name": "",
          "type": "uint256"
        }
      ],
      "stateMutability": "view",
      "type": "function"
    },
    {
      "inputs": [],
      "name": "owner",
      "outputs": [
        {
          "internalType": "address",
          "name": "",
          "type": "address"
        }
      ],
      "stateMutability": "view",
      "type": "function"
    },
    {
      "inputs": [
        {
          "internalType": "address",
          "name": "",
          "type": "address"
        },
        {
          "internalType": "uint256",
          "name": "",
          "type": "uint256"
        }
      ],
      "name": "positionIdsByAddress",
      "outputs": [
        {
          "internalType": "uint256",
          "name": "",
          "type": "uint256"
        }
      ],
      "stateMutability": "view",
      "type": "function"
    },
    {
      "inputs": [
        {
          "internalType": "uint256",
          "name": "",
          "type": "uint256"
        }
      ],
      "name": "positions",
      "outputs": [
        {
          "internalType": "uint256",
          "name": "positionId",
          "type": "uint256"
        },
        {
          "internalType": "address",
          "name": "walletAddress",
          "type": "address"
        },
        {
          "internalType": "uint256",
          "name": "createdDate",
          "type": "uint256"
        },
        {
          "internalType": "uint256",
          "name": "unlockDate",
          "type": "uint256"
        },
        {
          "internalType": "uint256",
          "name": "percentInterest",
          "type": "uint256"
        },
        {
          "internalType": "uint256",
          "name": "weiStaked",
          "type": "uint256"
        },
        {
          "internalType": "uint256",
          "name": "weiInterest",
          "type": "uint256"
        },
        {
          "internalType": "bool",
          "name": "open",
          "type": "bool"
        }
      ],
      "stateMutability": "view",
      "type": "function"
    },
    {
      "inputs": [
        {
          "internalType": "uint256",
          "name": "numDays",
          "type": "uint256"
        }
      ],
      "name": "stakeEther",
      "outputs": [],
      "stateMutability": "payable",
      "type": "function"
    }
  ],
  "bytecode": "0x6080604052336000806101000a81548173ffffffffffffffffffffffffffffffffffffffff021916908373ffffffffffffffffffffffffffffffffffffffff16021790555060006009819055506102bc600c6000600a815260200190815260200160002081905550610384600c6000601e8152602001908152602001600020819055506104b0600c6000605a815260200190815260200160002081905550600d600a9080600181540180825580915050600190039060005260206000200160009091909190915055600d601e9080600181540180825580915050600190039060005260206000200160009091909190915055600d605a90806001815401808255809150506001900390600052602060002001600090919091909150556115d38061012a6000396000f3fe6080604052600436106100dd5760003560e01c80638da5cb5b1161007f578063b0f0475b11610059578063b0f0475b146102ed578063b838ec8614610316578063cfef50f314610353578063e4f9084114610390576100dd565b80638da5cb5b1461025557806399fbab8814610280578063a126d601146102c4576100dd565b806341ee13be116100bb57806341ee13be1461018757806345eae373146101b25780634c8f2a78146101ef5780636b68ca591461022c576100dd565b80630c196a74146100e25780631131c8cd1461011f578063400494ae1461014a575b600080fd5b3480156100ee57600080fd5b5061010960048036038101906101049190610d98565b6103ac565b6040516101169190610dd4565b60405180910390f35b34801561012b57600080fd5b506101346103c9565b6040516101419190610dd4565b60405180910390f35b34801561015657600080fd5b50610171600480360381019061016c9190610d98565b6103cf565b60405161017e9190610dd4565b60405180910390f35b34801561019357600080fd5b5061019c6103e7565b6040516101a99190610ead565b60405180910390f35b3480156101be57600080fd5b506101d960048036038101906101d49190610f2d565b61043f565b6040516101e69190610dd4565b60405180910390f35b3480156101fb57600080fd5b5061021660048036038101906102119190610d98565b610470565b6040516102239190610dd4565b60405180910390f35b34801561023857600080fd5b50610253600480360381019061024e9190610f6d565b610494565b005b34801561026157600080fd5b5061026a610541565b6040516102779190610fbc565b60405180910390f35b34801561028c57600080fd5b506102a760048036038101906102a29190610d98565b610565565b6040516102bb989796959493929190610ff2565b60405180910390f35b3480156102d057600080fd5b506102eb60048036038101906102e69190610d98565b6105da565b005b3480156102f957600080fd5b50610314600480360381019061030f9190610f6d565b610863565b005b34801561032257600080fd5b5061033d60048036038101906103389190610d98565b610936565b60405161034a9190611130565b60405180910390f35b34801561035f57600080fd5b5061037a6004803603810190610375919061114c565b610a11565b6040516103879190610ead565b60405180910390f35b6103aa60048036038101906103a59190610d98565b610aa8565b005b6000600c6000838152602001908152602001600020549050919050565b60095481565b600c6020528060005260406000206000915090505481565b6060600d80548060200260200160405190810160405280929190818152602001828054801561043557602002820191906000526020600020905b815481526020019060010190808311610421575b5050505050905090565b600b602052816000526040600020818154811061045b57600080fd5b90600052602060002001600091509150505481565b600d818154811061048057600080fd5b906000526020600020016000915090505481565b3373ffffffffffffffffffffffffffffffffffffffff1660008054906101000a900473ffffffffffffffffffffffffffffffffffffffff1673ffffffffffffffffffffffffffffffffffffffff1614610522576040517f08c379a0000000000000000000000000000000000000000000000000000000008152600401610519906111fc565b60405180910390fd5b80600a6000848152602001908152602001600020600301819055505050565b60008054906101000a900473ffffffffffffffffffffffffffffffffffffffff1681565b600a6020528060005260406000206000915090508060000154908060010160009054906101000a900473ffffffffffffffffffffffffffffffffffffffff16908060020154908060030154908060040154908060050154908060060154908060070160009054906101000a900460ff16905088565b3373ffffffffffffffffffffffffffffffffffffffff16600a600083815260200190815260200160002060010160009054906101000a900473ffffffffffffffffffffffffffffffffffffffff1673ffffffffffffffffffffffffffffffffffffffff161461067e576040517f08c379a00000000000000000000000000000000000000000000000000000000081526004016106759061128e565b60405180910390fd5b60011515600a600083815260200190815260200160002060070160009054906101000a900460ff161515146106e8576040517f08c379a00000000000000000000000000000000000000000000000000000000081526004016106df906112fa565b60405180910390fd5b6000600a600083815260200190815260200160002060070160006101000a81548160ff021916908315150217905550600a6000828152602001908152602001600020600301544211156107e0576000600a600083815260200190815260200160002060060154600a60008481526020019081526020016000206005015461076f9190611349565b90503373ffffffffffffffffffffffffffffffffffffffff1681604051610795906113d0565b60006040518083038185875af1925050503d80600081146107d2576040519150601f19603f3d011682016040523d82523d6000602084013e6107d7565b606091505b50505050610860565b3373ffffffffffffffffffffffffffffffffffffffff16600a60008381526020019081526020016000206005015460405161081a906113d0565b60006040518083038185875af1925050503d8060008114610857576040519150601f19603f3d011682016040523d82523d6000602084013e61085c565b606091505b5050505b50565b3373ffffffffffffffffffffffffffffffffffffffff1660008054906101000a900473ffffffffffffffffffffffffffffffffffffffff1673ffffffffffffffffffffffffffffffffffffffff16146108f1576040517f08c379a00000000000000000000000000000000000000000000000000000000081526004016108e890611457565b60405180910390fd5b80600c600084815260200190815260200160002081905550600d8290806001815401808255809150506001900390600052602060002001600090919091909150555050565b61093e610d00565b600a600083815260200190815260200160002060405180610100016040529081600082015481526020016001820160009054906101000a900473ffffffffffffffffffffffffffffffffffffffff1673ffffffffffffffffffffffffffffffffffffffff1673ffffffffffffffffffffffffffffffffffffffff16815260200160028201548152602001600382015481526020016004820154815260200160058201548152602001600682015481526020016007820160009054906101000a900460ff1615151515815250509050919050565b6060600b60008373ffffffffffffffffffffffffffffffffffffffff1673ffffffffffffffffffffffffffffffffffffffff168152602001908152602001600020805480602002602001604051908101604052809291908181526020018280548015610a9c57602002820191906000526020600020905b815481526020019060010190808311610a88575b50505050509050919050565b6000600c60008381526020019081526020016000205411610afe576040517f08c379a0000000000000000000000000000000000000000000000000000000008152600401610af5906114c3565b60405180910390fd5b60405180610100016040528060095481526020013373ffffffffffffffffffffffffffffffffffffffff1681526020014281526020016201518083610b4391906114e3565b42610b4e9190611349565b8152602001600c6000848152602001908152602001600020548152602001348152602001610b90600c6000858152602001908152602001600020548434610cdc565b815260200160011515815250600a600060095481526020019081526020016000206000820151816000015560208201518160010160006101000a81548173ffffffffffffffffffffffffffffffffffffffff021916908373ffffffffffffffffffffffffffffffffffffffff16021790555060408201518160020155606082015181600301556080820151816004015560a0820151816005015560c0820151816006015560e08201518160070160006101000a81548160ff021916908315150217905550905050600b60003373ffffffffffffffffffffffffffffffffffffffff1673ffffffffffffffffffffffffffffffffffffffff1681526020019081526020016000206009549080600181540180825580915050600190039060005260206000200160009091909190915055600160096000828254610cd29190611349565b9250508190555050565b60006127108285610ced91906114e3565b610cf7919061156c565b90509392505050565b60405180610100016040528060008152602001600073ffffffffffffffffffffffffffffffffffffffff16815260200160008152602001600081526020016000815260200160008152602001600081526020016000151581525090565b600080fd5b6000819050919050565b610d7581610d62565b8114610d8057600080fd5b50565b600081359050610d9281610d6c565b92915050565b600060208284031215610dae57610dad610d5d565b5b6000610dbc84828501610d83565b91505092915050565b610dce81610d62565b82525050565b6000602082019050610de96000830184610dc5565b92915050565b600081519050919050565b600082825260208201905092915050565b6000819050602082019050919050565b610e2481610d62565b82525050565b6000610e368383610e1b565b60208301905092915050565b6000602082019050919050565b6000610e5a82610def565b610e648185610dfa565b9350610e6f83610e0b565b8060005b83811015610ea0578151610e878882610e2a565b9750610e9283610e42565b925050600181019050610e73565b5085935050505092915050565b60006020820190508181036000830152610ec78184610e4f565b905092915050565b600073ffffffffffffffffffffffffffffffffffffffff82169050919050565b6000610efa82610ecf565b9050919050565b610f0a81610eef565b8114610f1557600080fd5b50565b600081359050610f2781610f01565b92915050565b60008060408385031215610f4457610f43610d5d565b5b6000610f5285828601610f18565b9250506020610f6385828601610d83565b9150509250929050565b60008060408385031215610f8457610f83610d5d565b5b6000610f9285828601610d83565b9250506020610fa385828601610d83565b9150509250929050565b610fb681610eef565b82525050565b6000602082019050610fd16000830184610fad565b92915050565b60008115159050919050565b610fec81610fd7565b82525050565b600061010082019050611008600083018b610dc5565b611015602083018a610fad565b6110226040830189610dc5565b61102f6060830188610dc5565b61103c6080830187610dc5565b61104960a0830186610dc5565b61105660c0830185610dc5565b61106360e0830184610fe3565b9998505050505050505050565b61107981610eef565b82525050565b61108881610fd7565b82525050565b610100820160008201516110a56000850182610e1b565b5060208201516110b86020850182611070565b5060408201516110cb6040850182610e1b565b5060608201516110de6060850182610e1b565b5060808201516110f16080850182610e1b565b5060a082015161110460a0850182610e1b565b5060c082015161111760c0850182610e1b565b5060e082015161112a60e085018261107f565b50505050565b600061010082019050611146600083018461108e565b92915050565b60006020828403121561116257611161610d5d565b5b600061117084828501610f18565b91505092915050565b600082825260208201905092915050565b7f4f6e6c79206f776e6572206d6179206d6f6469667920756e6c6f636b2064617460008201527f6573000000000000000000000000000000000000000000000000000000000000602082015250565b60006111e6602283611179565b91506111f18261118a565b604082019050919050565b60006020820190508181036000830152611215816111d9565b9050919050565b7f4f6e6c7920706f736974696f6e2063726561746f72206d6179206d6f6469667960008201527f20706f736974696f6e0000000000000000000000000000000000000000000000602082015250565b6000611278602983611179565b91506112838261121c565b604082019050919050565b600060208201905081810360008301526112a78161126b565b9050919050565b7f506f736974696f6e20697320636c6f7365640000000000000000000000000000600082015250565b60006112e4601283611179565b91506112ef826112ae565b602082019050919050565b60006020820190508181036000830152611313816112d7565b9050919050565b7f4e487b7100000000000000000000000000000000000000000000000000000000600052601160045260246000fd5b600061135482610d62565b915061135f83610d62565b9250827fffffffffffffffffffffffffffffffffffffffffffffffffffffffffffffffff038211156113945761139361131a565b5b828201905092915050565b600081905092915050565b50565b60006113ba60008361139f565b91506113c5826113aa565b600082019050919050565b60006113db826113ad565b9150819050919050565b7f4f6e6c79206f776e6572206d6179206d6f64696679207374616b696e6720706560008201527f72696f6473000000000000000000000000000000000000000000000000000000602082015250565b6000611441602583611179565b915061144c826113e5565b604082019050919050565b6000602082019050818103600083015261147081611434565b9050919050565b7f4d617070696e67206e6f7420666f756e64000000000000000000000000000000600082015250565b60006114ad601183611179565b91506114b882611477565b602082019050919050565b600060208201905081810360008301526114dc816114a0565b9050919050565b60006114ee82610d62565b91506114f983610d62565b9250817fffffffffffffffffffffffffffffffffffffffffffffffffffffffffffffffff04831182151516156115325761153161131a565b5b828202905092915050565b7f4e487b7100000000000000000000000000000000000000000000000000000000600052601260045260246000fd5b600061157782610d62565b915061158283610d62565b9250826115925761159161153d565b5b82820490509291505056fea2646970667358221220769a8cddc69dbc75744fbc089f2769287db554ff5e7080fc4d19ab2da2124e5f64736f6c63430008090033",
  "linkReferences": {},
  "deployedLinkReferences": {}
}